:020000040800F2
:10000000E08A012061020008BF4700086B02000877
:10001000BB470008310900081F4E0008000000001F
:10002000000000000000000000000000A101000826
:100030003509000800000000FD010008A14A000881
:100040007B0200087B0200087B0200087B0200089C
:100050007B0200087B0200087B0200087B0200088C
:100060007B0200087B0200087B0200087B0200087C
:100070007B0200087B0200087B0200087B0200086C
:100080007B0200087B0200087B0200087B0200085C
:100090007B0200087B0200087B0200087B0200084C
:1000A0007B0200087B0200087B0200087B0200083C
:1000B0007B0200087B0200087B0200087B0200082C
:1000C0007B0200087B0200087B0200087B0200081C
:1000D0007B020008254C00087B0200087B02000818
:1000E0007B0200087B0200087B0200087B020008FC
:1000F0007B0200087B0200087B0200087B020008EC
:100100007B0200087B0200087B0200087B020008DB
:100110007B0200087B0200087B0200087B020008CB
:100120007B0200087B0200087B0200087B020008BB
:100130007B0200087B0200087B0200087B020008AB
:100140007B0200087B0200087B0200087B0200089B
:100150007B0200087B0200087B0200087B0200088B
:100160007B0200087B0200087B0200087B0200087B
:100170007B0200087B0200087B0200087B0200086B
:100180007B0200087B020008DFF810D000F024FB9F
:100190000048004715170208AFF30080E08A0120ED
:1001A0002C4B19680868B0E8F04F80F30988BFF35A
:1001B0006F8F4FF0000080F311887047000000003F
:1001C00008480068006880F308884FF0000080F35A
:1001D000148862B661B6BFF34F8FBFF36F8F00DF35
:1001E00000BF00BF08ED00E0DFF80C00016841F43B
:1001F00070010160704700BF88ED00E0EFF30980F7
:10020000BFF36F8F134B1A681EF0100F08BF20ED5D
:10021000108A20E9F04F106009B44FF0500080F3CD
:100220001188BFF34F8FBFF36F8F28F00FFB4FF094
:10023000000080F3118809BC19680868B0E8F04F25
:100240001EF0100F08BFB0EC108A80F30988BFF3CE
:100250006F8F704750000020EFF30580704700005B
:100260000648804706480047FEE7FEE7FEE7FEE750
:10027000FEE7FEE7FEE7FEE7FEE7FEE7D54A0008F9
:10028000890100082DE9F05F0546002092469B4653
:1002900088460646814640241BE02846414647469C
:1002A000224600F0D0F853465A46C01A914110D366
:1002B00011461846224600F0B7F82D1A67EB0108E0
:1002C0004F4622460120002100F0AEF817EB00094E
:1002D0004E41201EA4F10104DFDC484631462A4687
:1002E0004346BDE8F09F2DE9F0410024061B25465A
:1002F00071F1000605DA01240027D0EB070067EB57
:100300000101161E73F1000605DA0027D2EB070281
:10031000012567EB0303FFF7B5FF86460E46174638
:100320009C46AC4204D00025D0EB050E65EB0106DF
:1003300024B10020D2EB000760EB030C704631467D
:100340003A466346BDE8F08140EA01039B0703D0CB
:1003500009E008C9121F08C0042AFAD203E011F804
:10036000013B00F8013B521EF9D27047D2B201E0C6
:1003700000F8012B491EFBD270470022F6E710B5AA
:1003800013460A4604461946FFF7F0FF204610BD03
:1003900030B505462A460B4612F8010B13F8014BFF
:1003A00008B1A042F8D01CB1002802D06D1CF1E7C2
:1003B000284630BD421C10F8011B0029FBD1801AD1
:1003C000704710B5002200E0521C835C8C5CA34295
:1003D00001D1002BF8D1D8B2E1B2401A10BD30B52E
:1003E00005460020034600E05B1C934205D2EC5C0E
:1003F000C85C201A01D1002CF6D130BD30B50B46B7
:10040000014600202022012409E021FA02F59D4244
:1004100005D303FA02F5491B04FA02F52844151E18
:10042000A2F10102F1DC30BD202A04DB203A00FAFF
:1004300002F1002070479140C2F1200320FA03F33B
:10044000194390407047202A04DB203A21FA02F039
:100450000021704721FA02F3D040C2F120029140FE
:100460000843194670472DE9FE4F804681EA030094
:10047000C00F0C46009021F0004123F00045B8EB7E
:100480000200A94105D24046214690461C460B4633
:10049000024623F00040104347D0270DC7F30A005F
:1004A000C3F30A510290401A019040286BDAC3F35B
:1004B000130040F4801B0098924620B10023D2EB39
:1004C000030A63EB0B0B01985946C0F140025046FA
:1004D000FFF7AAFF06460D4650465946019A00F01E
:1004E0008DF910EB08006141002487EA115284EA7B
:1004F000E7731A4340D0009A62B3019A012A4FEA87
:10050000075215DC001B61EB02014FF0004202EACA
:100510000752CDE90042001C41F5801132462B46BE
:1005200000F08DF903B0BDE8F08F40462146F9E7B1
:10053000001B61EB0201001C41F5801300185B41B8
:100540002018A2F5001747EB030140EAD570B61951
:100550006D4111E06D084FEA360645EAC0754FEA75
:100560000752001B61EB0201001C41F58011490894
:100570004FEA30000019514132462B4603B0BDE826
:10058000F04F00F04DB90098012240000023D0EB5D
:10059000020263EBE073009821464FEAE074B8EB87
:1005A000000061EB0401E9E783F000435BE781F0C1
:1005B000004158E72DE9FE4F81EA030404F00044AE
:1005C00021F0004100944FF0000B23F0004350EA6B
:1005D00001045ED052EA03045BD0C3F30A54C1F3B2
:1005E0000A552C44A4F2F3340194A0FB0254C1F345
:1005F000130141F48011C3F3130343F4801301FB8F
:10060000024400FB034E840A970A44EA815447EAF5
:100610008357A4FB076802958D0A05FB07854FEAFF
:10062000932C04FB0C542705029D4FEA065847EA19
:100630001637B5EB08056EEB070C870E920E47EAEE
:10064000811742EA8312A7FB0201B6EB0B0164EBB0
:1006500000042B0D43EA0C335E1844EB1C50DA46C1
:100660005146E7FB0201C5F313044FEA0B3343EA9B
:1006700014534FEA0432019C43EA0603A4F10C042C
:100680000294009CCDE900B400F0D9F803B0BDE8B5
:10069000F08F00200146F9E72DE9F04D81EA0304CF
:1006A00004F0004B21F0004514464FF0000A23F0FF
:1006B000004150EA050220D054EA01021DD0C5F3E2
:1006C0000A570246C5F31303C1F31300C1F30A56D8
:1006D00040F4801543F48013A7EB0608101BD646A0
:1006E00008F2FD3873EB050002D308F1010801E0C0
:1006F00092185B41B8F1000F03DA00200146BDE813
:10070000F08D00204FF48011064684460EE0171B42
:1007100073EB050705D3121B63EB050306434CEA95
:10072000010C49084FEA300092185B4150EA01077A
:10073000EDD152EA030012D082EA040083EA0501F7
:10074000084305D0101BAB4106D20122002306E06E
:1007500000224FF0004302E06FF0010253101AEB49
:1007600006004CEB085110EB0A0041EB0B01BDE811
:10077000F04D00F055B8C1F30A52C1F3130140F235
:10078000FF3341F480119A4202DA0020014670479B
:1007900040F233439A42A2F2334202DC5242FFF764
:1007A00052BEFFF741BE000030B5041E71F10004D7
:1007B00004DB4FF00044404264EB0101141E73F16E
:1007C000000405DB1C464FF00043524263EB040378
:1007D000994208BF904230BD064C074D06E0E068E4
:1007E00040F0010394E8070098471034AC42F6D378
:1007F000FFF7CEFCB8E00208D8E00208202A06DBAA
:10080000CB17203A41FA02F043EAE07306E041FADE
:1008100002F3D040C2F120029140084319467047CC
:1008200010B5141E73F1000408DA401C41F10001F8
:1008300092185B411A4301D120F0010010BD2DE94F
:10084000F04D92469B4611B1B1FA81F202E0B0FA46
:1008500080F220329046FFF7E7FD04460F4640EA5B
:100860000A0041EA0B0153465A46084313D0114689
:1008700053EA010019D0C8F140025046FFF7E3FDEA
:1008800005460E46504659464246FFF7CDFD084301
:1008900005D0012004E020463946BDE8F08D002057
:1008A000054346EAE0762C4337430A986305E40A99
:1008B000A0EB08000022FD0A44EA47540A3002D5A2
:1008C00000200146E9E7010510196941DDE9084505
:1008D00000196941BDE8F04DA2E770B58C1810F819
:1008E000015B15F0070301D110F8013B2A1106D175
:1008F00010F8012B03E010F8016B01F8016B5B1E8F
:10090000F9D12B0705D40023521E0DD401F8013B69
:10091000FAE710F8013BCB1A921C03E013F8015BD5
:1009200001F8015B521EF9D5A142D8D3002070BD59
:1009300000BFFEE77047000051B18200A2F1C04243
:10094000126842F001038200A2F1C042136009E084
:100950008200A2F1C0421268034B1A408300A3F147
:10096000C0431A6070470000FEFF0F0030B5002141
:10097000002200230468A400A4F1C0442168424C72
:100980002140D0E901452C43C5682C4305692C431F
:1009900045692C4385692C43C5692C43056A2C4362
:1009A000456A2C43856A2C43C56A2C43056B2C434E
:1009B00021430468A400A4F1C04421608468082C89
:1009C0000BD10468A400A4F1C044246844F040059D
:1009D0000468A400A4F1C04425600468641CA40059
:1009E000A4F1C044226802F04042446B2468456B85
:1009F0006D6844EA0514456BAD6844EA0524456B0F
:100A0000AD8944EA0544456B2D8A44EA0554456B9B
:100A10002D7D44EA0564456BAD692C43224304688F
:100A2000641CA400A4F1C0442260C46AB4F5804FE1
:100A300020D10468A400A4F1C044D4F80431134CBC
:100A40002340846B2468856B6D6844EA0514856BCC
:100A5000AD6844EA0524856BAD8944EA0544856B9D
:100A6000AD692C4323430468A400A4F1C044C4F836
:100A7000043107E06FF070450468A400A4F1C0449D
:100A8000C4F8045130BD00008000F7FF0000F0CF33
:100A9000F0B50A4600210023002400BF3DE00125F7
:100AA00005FA01F3156805EA03049C4234D1056890
:100AB0004F000326BE40B543056015794E00B54092
:100AC0000668354305601579012D02D01579022D90
:100AD00016D185684F000326BE40B5438560557921
:100AE0004E00B540866835438560456801268E40D6
:100AF000B5434560456896798E40B6B2354345604A
:100B0000C5684F000326BE40B543C560D5794E0089
:100B1000B540C6683543C560491C1029BFD3F0BD38
:100B2000F0B5002300244D07ED0E02FA05F3CE10B8
:100B300000F1200555F826504E07F70E0F26BE404F
:100B4000B543CF1000F1200646F82750CE1000F133
:100B5000200555F8265045EA0304CE1000F1200583
:100B600045F82640F0BD0246002013690B400BB14A
:100B7000012000E0002070470A0482617047816113
:100B800070470AB1816101E00B0483617047000086
:100B900010B50446002C52D158498871F0200880C5
:100BA0004FF4A07048800846808849F2413188425D
:100BB0000BD05248808846F60401884205D04F4841
:100BC000808845F2103188421AD12C204B49088187
:100BD0002A2048812B2088810846808846F6040117
:100BE000884205D04548808845F21031884206D1B8
:100BF0004FF4A070414908804FF4F070488079E0CC
:100C00003E48808845F21051884210D14FF4305050
:100C10003A4908814FF4285048814FF42C5088817C
:100C20004FF4F07008804FF44870488062E0222052
:100C30003249088120204881212088815AE0012002
:100C40002E4988714FF4A0700880F0204880084633
:100C5000808849F24131884205D02848808845F291
:100C60001031884207D12C20244908812A2048814C
:100C70002B2088812BE02148808846F60401884299
:100C800007D12C201D4908812B2048812A208881EA
:100C90001DE01A48808845F21051884210D14FF467
:100CA0003050164908814FF4285048814FF42C5099
:100CB00088814FF4487008804FF4F070488006E057
:100CC00022200E49088121204881202088810B485C
:100CD000808846F60401884205D00848808845F29D
:100CE0001031884206D14FF4F070044908804FF467
:100CF000A0704880002003F0AFFB10BD8072002080
:100D000000B5A1B00020209001211A2003F09EFD23
:100D10000121084603F0AAFD02201E9001208DF853
:100D20007C0000208DF87E0002208DF87D000120DF
:100D30008DF87F001EA9FE48FFF7AAFE4EF2B370A1
:100D40001E9002208DF87C0000208DF87E0003208C
:100D50008DF87D0001208DF87F001EA9F548FFF772
:100D600097FE4FF680701E9002208DF87C000020C8
:100D70008DF87E0003208DF87D0001208DF87F0026
:100D80001EA9ED48FFF784FE0C220021E948FFF779
:100D9000C7FE0C220121E748FFF7C2FE0C22042106
:100DA000E448FFF7BDFE0C220521E248FFF7B8FE3C
:100DB0000C220721DF48FFF7B3FE0C220821DD4893
:100DC000FFF7AEFE0C220921DA48FFF7A9FE0C223C
:100DD0000A21D848FFF7A4FE0C220D21D548FFF7C1
:100DE0009FFE0C220E21D348FFF79AFE0C220F2102
:100DF000D048FFF795FE0C220721CF48FFF790FE61
:100E00000C220821CC48FFF78BFE0C220921CA488E
:100E1000FFF786FE0C220A21C748FFF781FE0C224D
:100E20000B21C548FFF77CFE0C221146C248FFF794
:100E300077FE0C220D21C048FFF772FE0C220E2116
:100E4000BD48FFF76DFE0C220F21BB48FFF768FE7F
:100E50000F200890002009903C200A9000200B9061
:100E60000C900D900E900920019000200290082017
:100E70000390002004900590069007900F9010902A
:100E8000119010201290002013901590149016903D
:100E900017904FF480501890002019904FF4804024
:100EA0001A9000201B9008A81C9001A81D900FA864
:100EB000FFF75CFD01210020FFF73EFD322008F026
:100EC000A8F90121002003F04DFC322008F0A1F91F
:100ED000002003F0B5FA9949888008468088FF28E9
:100EE0000ADB084680884FF6FF71884204D0934899
:100EF0008088B0F5134F7CD1D32003F027FC03F09A
:100F000095FA8E49888003F091FA8C49888003F025
:100F10008DFA8A498880084680884FF6FF7101EA79
:100F200000208649888003F081FA84498988084333
:100F3000824988800846808849F24131884278D0C9
:100F4000BF2003F003FC03F071FA7C49888003F0B2
:100F50006DFA7A49888003F069FA7849888003F04D
:100F600065FA76498880084680884FF6FF7101EA65
:100F700000207249888003F059FA70498988084333
:100F80006E4988800846808846F60401884250D021
:100F9000D42003F0DBFB03F049FA6849888003F0B2
:100FA00045FA6649888003F041FA6449888008461A
:100FB00080884FF6FF7101EA00206049888003F0C5
:100FC00035FA5E49898808435C49888008468088EC
:100FD00045F2103188422CD04FF45A4003F0B6FB52
:100FE00003F024FA554988804FF45B4003F0AEFBD0
:100FF00000E01EE003F01AFA504988800846808815
:101000004FF6FF7101EA00204C4988804FF45C40A4
:1010100003F09CFB03F00AFA4849898808434749D2
:10102000888008468088B0F5004F02D145F2105004
:1010300088804248808849F2413188420BD03F483D
:10104000808845F21031884205D03C48808845F2BE
:10105000105188421DD13A48006820F00F004FF02F
:101060002041C1F81C010846D0F81C0120F4706032
:10107000C1F81C010846D0F81C0140F00300C1F87B
:101080001C010846D0F81C0140F40070C1F81C0196
:1010900028E02A48808846F60401884205D027487F
:1010A00080884CF2055188421CD12548006820F008
:1010B0000F004FF02041C1F81C010846D0F81C0178
:1010C00020F47060C1F81C010846D0F81C0140F003
:1010D0000A00C1F81C010846D0F81C0140F4406029
:1010E000C1F81C011548818816A003F09BFE134827
:1010F000808849F2413188427ED1CF2003F026FB1F
:10110000002003F017FB2098401C2090C12003F022
:1011100011FB302003F00EFBED2003F017FB6420E1
:1011200003F008FB032003F005FB122012E000008F
:1011300000040240000C02400010024080720020B7
:101140001C0100A0204C43442049443A25780D0A54
:101150000000000003F0EEFA812003F0EBFAE82033
:1011600003F0F4FA852003F0E5FA102003F0E2FA28
:101170007A2003F0DFFACB2003F0E8FA392003F0FD
:10118000D9FA2C2003F0D6FA002003F0D3FA342049
:1011900003F0D0FA022003F0CDFAF72003F0D6FADC
:1011A000202003F0C7FAEA2003F0D0FA002003F071
:1011B000C1FA002003F0BEFAC02003F0C7FA1B20DA
:1011C00003F0B8FAC12003F0C1FA012003F0B2FA2B
:1011D000C52003F0BBFA302003F0ACFA302003F056
:1011E000A9FAC72003F0B2FAB72003F0A3FA362019
:1011F00003F0ACFA482000E0AEE003F09BFA3A209E
:1012000003F0A4FA552003F095FAB12003F09EFAFA
:10121000002003F08FFA1A2003F08CFAB62003F0B6
:1012200095FA0A2003F086FAA22003F083FAF2204E
:1012300003F08CFA002003F07DFA262003F086FAF2
:10124000012003F077FAE02003F080FA0F2003F08A
:1012500071FA2A2003F06EFA282003F06BFA0820B6
:1012600003F068FA0E2003F065FA082003F062FA32
:10127000542003F05FFAA92003F05CFA432003F046
:1012800059FA0A2003F056FA0F2003F053FA00200F
:1012900003F050FA002003F04DFA002003F04AFA60
:1012A000002003F047FAE12003F050FA002003F099
:1012B00041FA152003F03EFA172003F03BFA07200D
:1012C00003F038FA112003F035FA062003F032FA61
:1012D0002B2003F02FFA562003F02CFA3C2003F0C9
:1012E00029FA052003F026FA102003F023FA0F2034
:1012F00003F020FA3F2003F01DFA3F2003F01AFA12
:101300000F2003F017FA2B2003F020FA002003F03F
:1013100011FA002003F00EFA012003F00BFA3F202F
:1013200003F008FA2A2003F011FA002003F002FA71
:10133000002003F0FFF9002003F0FCF9EF2003F098
:10134000F9F9112003F002FA782007F062FF292052
:1013500003F0FCF903F05CB8FE48808846F604010F
:1013600088427CD1112003F0F1F9142007F051FFDD
:10137000D02003F0EBF9072003F0DCF9422003F062
:10138000D9F91D2003F0D6F9D12003F0DFF90020B0
:1013900003F0D0F91A2003F0CDF9092003F0CAF9BF
:1013A000D22003F0D3F9012003F0C4F9222003F086
:1013B000C1F9C02003F0CAF9102003F0BBF93B20AB
:1013C00003F0B8F9002003F0B5F9022003F0B2F9F8
:1013D000112003F0AFF9C52003F0B8F9032003F0A2
:1013E000A9F9C82003F0B2F9002003F0A3F92520E1
:1013F00003F0A0F9212003F09DF9052003F09AF9EC
:10140000002003F097F90A2003F094F9652003F017
:1014100091F9252003F08EF9772003F08BF9502005
:1014200003F088F90F2003F085F9002003F082F91A
:10143000F82003F08BF9012003F07CF9FE2003F083
:1014400085F9002003F076F9022003F073F92020DB
:1014500003F07CF9362003F079F9082000E02CE055
:1014600003F068F93A2003F071F9552003F062F9AE
:101470002B2003F06BF9002003F05CF9002003F04F
:1014800059F9012003F056F93F2003F053F92A20BF
:1014900003F05CF9002003F04DF9002003F04AF955
:1014A000012003F047F9DF2003F044F9782007F02A
:1014B000B0FE292003F04AF94CE7A648808845F29F
:1014C0001031884240F07C87ED2003F03FF9012085
:1014D00003F030F9FE2003F02DF9EE2003F036F989
:1014E000DE2003F027F9212003F024F9F12003F096
:1014F0002DF9012003F01EF9DF2003F027F9102059
:1015000003F018F9C42003F021F98F2003F012F939
:10151000C62003F01BF9002003F00CF9E22003F0D1
:1015200009F9E22003F006F9E22003F003F9BF20F5
:1015300003F00CF9AA2003F0FDF8B02003F006F93F
:101540000D2003F0F7F8002003F0F4F80D2003F06D
:10155000F1F8002003F0EEF8112003F0EBF8002082
:1015600003F0E8F8192003F0E5F8002003F0E2F8B2
:10157000212003F0DFF8002003F0DCF82D2003F039
:10158000D9F8002003F0D6F83D2003F0D3F800206E
:1015900003F0D0F85D2003F0CDF8002003F0CAF886
:1015A0005D2003F0C7F8002003F0C4F8B12003F079
:1015B000CDF8802003F0BEF8002003F0BBF88B20AC
:1015C00003F0B8F8002003F0B5F8962003F0B2F865
:1015D000002003F0AFF8B22003F0B8F8002003F0C9
:1015E000A9F8002003F0A6F8022003F0A3F80020D9
:1015F00003F0A0F8032003F09DF8002003F09AF810
:10160000B32003F0A3F8002003F094F8002003F0C7
:1016100091F8002003F08EF8002003F08BF80020F2
:1016200003F088F8002003F085F8002003F082F82A
:10163000002003F07FF8002003F07CF8002003F086
:1016400079F8002003F076F8002003F073F800200A
:1016500003F070F8002003F06DF8002003F06AF842
:10166000002003F067F8002003F064F8002003F086
:1016700061F8002003F05EF8002003F05BF8002022
:1016800003F058F8002003F055F8002003F052F85A
:10169000002003F04FF8B42003F058F88B2003F03B
:1016A00049F8002003F046F8962003F043F80020A4
:1016B00003F040F8A12003F03DF8002003F03AF8D1
:1016C000B52003F043F8022003F034F8002003F0C3
:1016D00031F8032003F02EF8002003F02BF804204B
:1016E00003F028F8002003F025F8B62003F02EF8C8
:1016F000002003F01FF8002003F01CF8B72003F0CF
:1017000025F8002003F016F8002003F013F83F201E
:1017100003F010F8002003F00DF85E2003F00AF843
:10172000002003F007F8642003F004F8002003F021
:1017300001F88C2002F0FEFF002002F0FBFFAC203D
:1017400002F0F8FF002002F0F5FFDC2002F0F2FFCB
:10175000002001E08072002002F0ECFF702002F017
:10176000E9FF002002F0E6FF902002F0E3FF0020F6
:1017700002F0E0FFEB2002F0DDFF002002F0DAFFD4
:10178000DC2002F0D7FF002002F0D4FFB82002F0E6
:10179000DDFF002002F0CEFF002002F0CBFF002092
:1017A00002F0C8FF002002F0C5FF002002F0C2FFD7
:1017B000002002F0BFFF002002F0BCFF002002F07A
:1017C000B9FFBA2002F0C2FF242002F0B3FF0020CC
:1017D00002F0B0FF002002F0ADFF002002F0AAFFEF
:1017E000C12002F0B3FF202002F0A4FF002002F08D
:1017F000A1FF542002F09EFF002002F09BFFFF207B
:1018000002F098FF002002F095FFC22002F09EFF38
:101810000A2002F08FFF002002F08CFF042002F06B
:1018200089FF002002F086FFC32002F08FFF3C20DA
:1018300002F080FF002002F07DFF3A2002F07AFFE4
:10184000002002F077FF392002F074FF002002F040
:1018500071FF372002F06EFF002002F06BFF3C208A
:1018600002F068FF002002F065FF362002F062FF00
:10187000002002F05FFF322002F05CFF002002F047
:1018800059FF2F2002F056FF002002F053FF2C20BA
:1018900002F050FF002002F04DFF292002F04AFF25
:1018A000002002F047FF262002F044FF002002F053
:1018B00041FF242002F03EFF002002F03BFF2420E5
:1018C00002F038FF002002F035FF232002F032FF43
:1018D000002002F02FFF3C2002F02CFF002002F03D
:1018E00029FF362002F026FF002002F023FF3220DD
:1018F00002F020FF002002F01DFF2F2002F01AFF4F
:10190000002002F017FF2C2002F014FF002002F04C
:1019100011FF292002F00EFF002002F00BFF26200D
:1019200002F008FF002002F005FF242002F002FF71
:10193000002002F0FFFE242002F0FCFE002002F056
:10194000F9FE232002F0F6FE002002F0F3FEC42090
:1019500002F0FCFE622002F0EDFE002002F0EAFE42
:10196000052002F0E7FE002002F0E4FE842002F0F1
:10197000E1FE002002F0DEFEF02002F0DBFE00209F
:1019800002F0D8FE182002F0D5FE002002F0D2FEB0
:10199000A42002F0CFFE002002F0CCFE182002F0BE
:1019A000C9FE002002F0C6FE502002F0C3FE002057
:1019B00002F0C0FE0C2002F0BDFE002002F0BAFED4
:1019C000172002F0B7FE002002F0B4FE952002F0CE
:1019D000B1FE002002F0AEFEF32002F0ABFE0020CC
:1019E00002F0A8FEE62002F0A5FE002002F0A2FE12
:1019F000C52002F0ABFE322002F09CFE002002F077
:101A000099FE442002F096FE002002F093FE65202D
:101A100002F090FE002002F08DFE762002F08AFE99
:101A2000002002F087FE882002F084FE002002F0F1
:101A300081FEC62002F08AFE202002F07BFE0020FC
:101A400002F078FE172002F075FE002002F072FE10
:101A5000012002F06FFE002002F06CFEC72002F0B1
:101A600075FE002002F066FE002002F063FE0020FA
:101A700002F060FE002002F05DFEC82002F066FE6B
:101A8000002002F057FE002002F054FE002002F079
:101A900051FE002002F04EFEC92002F057FE002049
:101AA00002F048FE002002F045FE002002F042FE57
:101AB000002002F03FFE002002F03CFE002002F079
:101AC00039FE002002F036FE002002F033FE002036
:101AD00002F030FE002002F02DFE002002F02AFE6F
:101AE000002002F027FE002002F024FE002002F079
:101AF00021FE002002F01EFE002002F01BFEE0206E
:101B000002F024FE162002F015FE002002F012FE64
:101B10001C2002F00FFE002002F00CFE212002F03B
:101B200009FE002002F006FE362002F003FE00202F
:101B300002F000FE462002F0FDFD002002F0FAFD5A
:101B4000522002F0F7FD002002F0F4FD642002F0C4
:101B5000F1FD002002F0EEFD7A2002F0EBFD002006
:101B600002F0E8FD8B2002F0E5FD002002F0E2FD2E
:101B7000992002F0DFFD002002F0DCFDA82002F039
:101B8000D9FD002002F0D6FDB92002F0D3FD0020DF
:101B900002F0D0FDC42002F0CDFD002002F0CAFD0D
:101BA000CA2002F0C7FD002002F0C4FDD22002F0DE
:101BB000C1FD002002F0BEFDD92002F0BBFD0020D7
:101BC00002F0B8FDE02002F0B5FD002002F0B2FD09
:101BD000F32002F0AFFD002002F0ACFDE12002F0A6
:101BE000B5FD162002F0A6FD002002F0A3FD1C208A
:101BF00002F0A0FD002002F09DFD222002F09AFDDF
:101C0000002002F097FD362002F094FD002002F043
:101C100091FD452002F08EFD002002F08BFD522048
:101C200002F088FD002002F085FD642002F082FDB4
:101C3000002002F07FFD7A2002F07CFD002002F0FF
:101C400079FD8B2002F076FD002002F073FD9920D3
:101C500002F070FD002002F06DFDA82002F06AFD88
:101C6000002002F067FDB92002F064FD002002F0C0
:101C700061FDC42002F05EFD002002F05BFDCA2081
:101C800002F058FD002002F055FDD22002F052FD76
:101C9000002002F04FFDD82002F04CFD002002F0A1
:101CA00049FDE02002F046FD002002F043FDF32054
:101CB00002F040FD002002F03DFDE22002F046FD72
:101CC000052002F037FD002002F034FD0B2002F069
:101CD00031FD002002F02EFD1B2002F02BFD002024
:101CE00002F028FD342002F025FD002002F022FD44
:101CF000442002F01FFD002002F01CFD4F2002F0E6
:101D000019FD002002F016FD612002F013FD0020F5
:101D100002F010FD792002F00DFD002002F00AFD16
:101D2000882002F007FD002002F004FD972002F059
:101D300001FD002002F0FEFCA62002F0FBFC0020CA
:101D400002F0F8FCB72002F0F5FC002002F0F2FCF3
:101D5000C22002F0EFFC002002F0ECFCC72002F0F1
:101D6000E9FC002002F0E6FCD12002F0E3FC0020B8
:101D700002F0E0FCD62002F0DDFC002002F0DAFCEC
:101D8000DD2002F0D7FC002002F0D4FCF32002F0AA
:101D9000D1FC002002F0CEFCE32002F0D7FC0520AD
:101DA00002F0C8FC002002F0C5FC0A2002F0C2FCD0
:101DB000002002F0BFFC1C2002F0BCFC002002F05E
:101DC000B9FC332002F0B6FC002002F0B3FC442042
:101DD00002F0B0FC002002F0ADFC502002F0AAFCA2
:101DE000002002F0A7FC622002F0A4FC002002F018
:101DF000A1FC782002F09EFC002002F09BFC8820D1
:101E000002F098FC002002F095FC972002F092FC72
:101E1000002002F08FFCA62002F08CFC002002F0D3
:101E200089FCB72002F086FC002002F083FCC2206F
:101E300002F080FC002002F07DFCC72002F07AFC5A
:101E4000002002F077FCD12002F074FC002002F0A8
:101E500071FCD52002F06EFC002002F06BFCDD204E
:101E600002F068FC002002F065FCF32002F062FC46
:101E7000002002F05FFCE42002F068FC012002F088
:101E800059FC002002F056FC012002F053FC002017
:101E900002F050FC022002F04DFC002002F04AFC4F
:101EA0002A2002F047FC002002F044FC3C2002F013
:101EB00041FC002002F03EFC4B2002F03BFC0020E5
:101EC00002F038FC5D2002F035FC002002F032FC0C
:101ED000742002F02FFC002002F02CFC842002F081
:101EE00029FC002002F026FC932002F023FC0020B5
:101EF00002F020FCA22002F01DFC002002F01AFCDF
:101F0000B32002F017FC002002F014FCBE2002F007
:101F100011FC002002F00EFCC42002F00BFC00209B
:101F200002F008FCCD2002F005FC002002F002FCCB
:101F3000D32002F0FFFB002002F0FCFBDD2002F0CA
:101F4000F9FB002002F0F6FBF32002F0F3FB002087
:101F500002F0F0FBE52002F0F9FB002002F0EAFBC2
:101F6000002002F0E7FB002002F0E4FB002002F07A
:101F7000E1FB022002F0DEFB002002F0DBFB292067
:101F800002F0D8FB002002F0D5FB3C2002F0D2FB8F
:101F9000002002F0CFFB4B2002F0CCFB002002F02F
:101FA000C9FB5D2002F0C6FB002002F0C3FB7420D9
:101FB00002F0C0FB002002F0BDFB842002F0BAFB5F
:101FC000002002F0B7FB932002F0B4FB002002F0E7
:101FD000B1FBA22002F0AEFB002002F0ABFBB3206D
:101FE00002F0A8FB002002F0A5FBBE2002F0A2FB3D
:101FF000002002F09FFBC42002F09CFB002002F0B6
:1020000099FBCD2002F096FB002002F093FBD32039
:1020100002F090FB002002F08DFBDC2002F08AFB36
:10202000002002F087FBF32002F084FB002002F086
:1020300081FBE62002F08AFB112002F07BFB0020EE
:1020400002F078FB342002F075FB002002F072FBF6
:10205000562002F06FFB002002F06CFB762002F0AD
:1020600069FB002002F066FB772002F063FB002092
:1020700002F060FB662002F05DFB002002F05AFBDC
:10208000882002F057FB002002F054FB992002F058
:1020900051FB002002F04EFBBB2002F04BFB002066
:1020A00002F048FB992002F045FB002002F042FBC1
:1020B000662002F03FFB002002F03CFB552002F0BE
:1020C00039FB002002F036FB552002F033FB0020E4
:1020D00002F030FB452002F02DFB002002F02AFB2D
:1020E000432002F027FB002002F024FB442002F0F2
:1020F00021FB002002F01EFBE72002F027FB32202C
:1021000002F018FB002002F015FB552002F012FB34
:10211000002002F00FFB762002F00CFB002002F002
:1021200009FB662002F006FB002002F003FB67209B
:1021300002F000FB002002F0FDFA672002F0FAFA3C
:10214000002002F0F7FA872002F0F4FA002002F0F3
:10215000F1FA992002F0EEFA002002F0EBFABB202F
:1021600002F0E8FA002002F0E5FA992002F0E2FA23
:10217000002002F0DFFA772002F0DCFA002002F003
:10218000D9FA442002F0D6FA002002F0D3FA562001
:1021900002F0D0FA002002F0CDFA232002F0CAFAB1
:1021A000002002F0C7FA332002F0C4FA002002F047
:1021B000C1FA452002F0BEFA002002F0BBFAE82086
:1021C00002F0C4FA002002F0B5FA002002F0B2FAE0
:1021D000992002F0AFFA002002F0ACFA872002F05A
:1021E000A9FA002002F0A6FA882002F0A3FA002043
:1021F00002F0A0FA772002F09DFA002002F09AFA8D
:10220000662002F097FA002002F094FA882002F08B
:1022100091FA002002F08EFAAA2002F08BFA002038
:1022200002F088FABB2002F085FA002002F082FA60
:10223000992002F07FFA002002F07CFA662002F07A
:1022400079FA002002F076FA552002F073FA0020A5
:1022500002F070FA552002F06DFA002002F06AFADE
:10226000442002F067FA002002F064FA442002F0F1
:1022700061FA002002F05EFA552002F05BFA0020BD
:1022800002F058FAE92002F061FAAA2002F052FAAC
:10229000002002F04FFA002002F04CFA002002F079
:1022A00049FA002002F052FAAA2002F043FACF20A5
:1022B00002F04CFA002002F03DFA002002F03AFA57
:1022C000002002F037FA002002F034FA002002F079
:1022D00031FA002002F02EFA002002F02BFA002042
:1022E00002F028FA002002F025FA002002F022FA7B
:1022F000002002F01FFA002002F01CFA002002F079
:1023000019FA002002F016FA002002F013FA002059
:1023100002F010FA002002F00DFAF02002F016FA96
:10232000002002F007FA502002F004FA002002F028
:1023300001FA002002F0FEF9002002F0FBF9F32080
:1023400002F004FA002002F0F5F9F92002F0FEF99B
:10235000062002F0EFF9102002F0ECF9292002F03B
:10236000E9F9002002F0E6F93A2002F0EFF95520F1
:1023700002F0E0F9112002F0E9F9642006F049FFCB
:10238000292002F0E3F9352002F0E0F9002002F004
:10239000D1F9512002F0DAF9FF2002F0CBF95320F5
:1023A00002F0D4F92C2002F0C5F9552002F0CEF944
:1023B000822002F0BFF92C2002F0C8F902F028B800
:1023C000FE48808845F2105188427DD155214FF456
:1023D000704002F0C7F9AA214FF2010002F0C2F9E1
:1023E00052214FF2020002F0BDF908214FF2030022
:1023F00002F0B8F901214FF2040002F0B3F90D2107
:102400004FF4304002F0AEF90D214BF2010002F022
:10241000A9F90D214BF2020002F0A4F934214FF486
:10242000364002F09FF934214BF2016002F09AF934
:1024300034214BF2026002F095F90D214FF4314046
:1024400002F090F90D214BF2011002F08BF90D21F1
:102450004BF2021002F086F934214FF4374002F0BB
:1024600081F934214BF2017002F07CF934214BF2F6
:10247000027002F077F900214FF4324002F072F955
:1024800000214BF2012002F06DF900214BF20220F5
:1024900002F068F924214FF4384002F063F9242156
:1024A0004BF6010002F05EF924214BF6020002F027
:1024B00059F901214FF43F4002F054F90F214FF434
:1024C000334002F04FF900E0FDE30F214BF2013001
:1024D00002F048F90F214BF2023002F043F93421A7
:1024E0004FF4394002F03EF934214BF6011002F06E
:1024F00039F934214BF6021002F034F908214FF477
:10250000354002F02FF908214BF2015002F02AF970
:1025100008214BF2025002F025F903214FF442400A
:1025200002F020F924214FF43A4002F01BF9242153
:102530004BF6012002F016F924214BF6022002F09E
:1025400011F900214FF43C4002F00CF978214BF6D0
:10255000014002F007F900214BF6024002F002F9B7
:1025600000214FF43D4002F0FDF878214BF6015078
:1025700002F0F8F800214BF6025002F0F3F80021C7
:102580004FF43E4002F0EEF864214BF6016002F099
:10259000E9F800214FF4514002F0E4F833214DF204
:1025A000011002F0DFF800214DF2021002F0DAF81B
:1025B00034214DF2031002F0D5F800214DF2041041
:1025C00002F0D0F83A214DF2051002F0CBF80021CC
:1025D0004DF2061002F0C6F84A214DF2071002F043
:1025E000C1F800214DF2081002F0BCF85C214DF258
:1025F000091002F0B7F800214DF20A1002F0B2F80B
:1026000081214DF20B1002F0ADF800214DF20C10BB
:1026100002F0A8F8A6214DF20D1002F0A3F8002157
:102620004DF20E1002F09EF8E5214DF20F1002F06F
:1026300099F801214DF2101002F094F813214DF297
:10264000111002F08FF801214DF2121002F08AF8F9
:1026500054214DF2131002F085F801214DF21410AF
:1026600002F080F882214DF2151002F07BF8012172
:102670004DF2161002F076F8CA214DF2171002F052
:1026800071F802214DF2181002F06CF800214DF2A1
:10269000191002F067F802214DF21A1002F062F8E8
:1026A00001214DF21B1002F05DF802214DF21C10C9
:1026B00002F058F834214DF21D1002F053F80221B7
:1026C0004DF21E1002F04EF867214DF21F1002F07D
:1026D00049F802214DF2201002F044F884214DF215
:1026E000211002F03FF802214DF2221002F03AF8D8
:1026F000A4214DF2231002F035F802214DF22410EE
:1027000002F030F8B7214DF2251002F02BF802212B
:102710004DF2261002F026F8CF214DF2271002F0DC
:1027200021F802214DF2281002F01CF8DE214DF2B2
:10273000291002F017F802214DF22A1002F012F8C7
:10274000F2214DF22B1002F00DF802214DF22C1067
:1027500002F008F8FE214DF22D1002F003F80321DB
:102760004DF22E1001F0FEFF10214DF22F1001F05E
:10277000F9FF03214DF2301001F0F4FF33214DF247
:10278000311001F0EFFF03214DF2321001F0EAFFAA
:102790006D214DF2331001F0E5FF00214FF452405E
:1027A00001F0E0FF33214DF2012001F0DBFF0021B9
:1027B0004DF2022001F0D6FF342101E080720020AA
:1027C0004DF2032001F0CEFF00214DF2042001F074
:1027D000C9FF3A214DF2052001F0C4FF00214DF25E
:1027E000062001F0BFFF4A214DF2072001F0BAFF99
:1027F00000214DF2082001F0B5FF5C214DF20920C7
:1028000001F0B0FF00214DF20A2001F0ABFF812161
:102810004DF20B2001F0A6FF00214DF20C2001F03B
:10282000A1FFA6214DF20D2001F09CFF00214DF2E9
:102830000E2001F097FFE5214DF20F2001F092FFED
:1028400001214DF2102001F08DFF13214DF21120D6
:1028500001F088FF01214DF2122001F083FF542185
:102860004DF2132001F07EFF01214DF2142001F002
:1028700079FF82214DF2152001F074FF01214DF204
:10288000162001F06FFFCA214DF2172001F06AFFF8
:1028900002214DF2182001F065FF00214DF21920B0
:1028A00001F060FF02214DF21A2001F05BFF0121CF
:1028B0004DF21B2001F056FF02214DF21C2001F0C9
:1028C00051FF34214DF21D2001F04CFF02214DF249
:1028D0001E2001F047FF67214DF21F2001F042FF4B
:1028E00002214DF2202001F03DFF84214DF22120F4
:1028F00001F038FF02214DF2222001F033FFA42124
:102900004DF2232001F02EFF02214DF2242001F090
:1029100029FFB7214DF2252001F024FF02214DF2BD
:10292000262001F01FFFCF214DF2272001F01AFFD2
:1029300002214DF2282001F015FFDE214DF2292061
:1029400001F010FF02214DF22A2001F00BFFF221CD
:102950004DF22B2001F006FF02214DF22C2001F058
:1029600001FFFE214DF22D2001F0FCFE03214DF26E
:102970002E2001F0F7FE10214DF22F2001F0F2FE83
:1029800003214DF2302001F0EDFE33214DF23120D4
:1029900001F0E8FE03214DF2322001F0E3FE6D214B
:1029A0004DF2332001F0DEFE00214FF4534001F0E0
:1029B000D9FE33214DF2013001F0D4FE00214DF259
:1029C000023001F0CFFE34214DF2033001F0CAFE97
:1029D00000214DF2043001F0C5FE3A214DF20530E0
:1029E00001F0C0FE00214DF2063001F0BBFE4A218D
:1029F0004DF2073001F0B6FE00214DF2083001F033
:102A0000B1FE5C214DF2093001F0ACFE00214DF227
:102A10000A3001F0A7FE81214DF20B3001F0A2FE39
:102A200000214DF20C3001F09DFEA6214DF20D303B
:102A300001F098FE00214DF20E3001F093FEE521E9
:102A40004DF20F3001F08EFE01214DF2103001F0F9
:102A500089FE13214DF2113001F084FE01214DF267
:102A6000123001F07FFE54214DF2133001F07AFE56
:102A700001214DF2143001F075FE82214DF2153026
:102A800001F070FE01214DF2163001F06BFECA21FB
:102A90004DF2173001F066FE02214DF2183001F0C0
:102AA00061FE00214DF2193001F05CFE02214DF271
:102AB0001A3001F057FE01214DF21B3001F052FE99
:102AC00002214DF21C3001F04DFE34214DF21D303B
:102AD00001F048FE02214DF21E3001F043FE672155
:102AE0004DF21F3001F03EFE02214DF2203001F088
:102AF00039FE84214DF2213001F034FE02214DF2E5
:102B0000223001F02FFEA4214DF2233001F02AFEE5
:102B100002214DF2243001F025FEB7214DF225307F
:102B200001F020FE02214DF2263001F01BFECF21E4
:102B30004DF2273001F016FE02214DF2283001F04F
:102B400011FEDE214DF2293001F00CFE02214DF282
:102B50002A3001F007FEF2214DF22B3001F002FE87
:102B600002214DF22C3001F0FDFDFE214DF22D3001
:102B700001F0F8FD03214DF22E3001F0F3FD10219C
:102B80004DF22F3001F0EEFD03214DF2303001F017
:102B9000E9FD33214DF2313001F0E4FD03214DF226
:102BA000323001F0DFFD6D214DF2333001F0DAFDFE
:102BB00000214FF4544001F0D5FD33214DF2014086
:102BC00001F0D0FD00214DF2024001F0CBFD342197
:102BD0004DF2034001F0C6FD00214DF2044001F02A
:102BE000C1FD3A214DF2054001F0BCFD00214DF23E
:102BF000064001F0B7FD4A214DF2074001F0B2FD59
:102C000000214DF2084001F0ADFD5C214DF209407C
:102C100001F0A8FD00214DF20A4001F0A3FD812141
:102C20004DF20B4001F09EFD00214DF20C4001F0F1
:102C300099FDA6214DF20D4001F094FD00214DF2C9
:102C40000E4001F08FFDE5214DF20F4001F08AFDAD
:102C500001214DF2104001F085FD13214DF211408C
:102C600001F080FD01214DF2124001F07BFD542165
:102C70004DF2134001F076FD01214DF2144001F0B8
:102C800071FD82214DF2154001F06CFD01214DF2E4
:102C9000164001F067FDCA214DF2174001F062FDB8
:102CA00002214DF2184001F05DFD00214DF2194066
:102CB00001F058FD02214DF21A4001F053FD0121AF
:102CC0004DF21B4000E006E301F04CFD02214DF205
:102CD0001C4001F047FD34214DF21D4001F042FD42
:102CE00002214DF21E4001F03DFD67214DF21F40D3
:102CF00001F038FD02214DF2204001F033FD842126
:102D00004DF2214001F02EFD02214DF2224001F052
:102D100029FDA4214DF2234001F024FD02214DF2B2
:102D2000244001F01FFDB7214DF2254001F01AFDAE
:102D300002214DF2264001F015FDCF214DF2274032
:102D400001F010FD02214DF2284001F00BFDDE21C3
:102D50004DF2294001F006FD02214DF22A4001F01A
:102D600001FDF2214DF22B4001F0FCFC02214DF25D
:102D70002C4001F0F7FCFE214DF22D4001F0F2FC59
:102D800003214DF22E4001F0EDFC10214DF22F40B9
:102D900001F0E8FC03214DF2304001F0E3FC332167
:102DA0004DF2314001F0DEFC03214DF2324001F0E2
:102DB000D9FC6D214DF2334001F0D4FC00214FF4D9
:102DC000554001F0CFFC33214DF2015001F0CAFC17
:102DD00000214DF2025001F0C5FC34214DF20350A8
:102DE00001F0C0FC00214DF2045001F0BBFC3A217F
:102DF0004DF2055001F0B6FC00214DF2065001F0F5
:102E0000B1FC4A214DF2075001F0ACFC00214DF21B
:102E1000085001F0A7FC5C214DF2095001F0A2FC22
:102E200000214DF20A5001F09DFC81214DF20B5022
:102E300001F098FC00214DF20C5001F093FCA6210A
:102E40004DF20D5001F08EFC00214DF20E5001F0BC
:102E500089FCE5214DF20F5001F084FC01214DF277
:102E6000105001F07FFC13214DF2115001F07AFC5B
:102E700001214DF2125001F075FC54214DF2135016
:102E800001F070FC01214DF2145001F06BFC822125
:102E90004DF2155001F066FC01214DF2165001F083
:102EA00061FCCA214DF2175001F05CFC02214DF289
:102EB000185001F057FC00214DF2195001F052FC5E
:102EC00002214DF21A5001F04DFC01214DF21B5030
:102ED00001F048FC02214DF21C5001F043FC34216A
:102EE0004DF21D5001F03EFC02214DF21E5001F04A
:102EF00039FC67214DF21F5001F034FC02214DF2E4
:102F0000205001F02FFC84214DF2215001F02AFCC9
:102F100002214DF2225001F025FCA4214DF2235054
:102F200001F020FC02214DF2245001F01BFCB721DE
:102F30004DF2255001F016FC02214DF2265001F011
:102F400011FCCF214DF2275001F00CFC02214DF273
:102F5000285001F007FCDE214DF2295001F002FC5F
:102F600002214DF22A5001F0FDFBF2214DF22B50CF
:102F700001F0F8FB02214DF22C5001F0F3FBFE2191
:102F80004DF22D5001F0EEFB03214DF22E5001F0D9
:102F9000E9FB10214DF22F5001F0E4FB03214DF22B
:102FA000305001F0DFFB33214DF2315001F0DAFBFC
:102FB00003214DF2325001F0D5FB6D214DF233501B
:102FC00001F0D0FB00214FF4564001F0CBFB332140
:102FD0004DF2016001F0C6FB00214DF2026001F0EC
:102FE000C1FB34214DF2036001F0BCFB00214DF226
:102FF000046001F0B7FB3A214DF2056001F0B2FB2D
:1030000000214DF2066001F0ADFB4A214DF2076050
:1030100001F0A8FB00214DF2086001F0A3FB5C2148
:103020004DF2096001F09EFB00214DF20A6001F0B3
:1030300099FB81214DF20B6001F094FB00214DF2D0
:103040000C6001F08FFBA6214DF20D6001F08AFBB0
:1030500000214DF20E6001F085FBE5214DF20F607D
:1030600001F080FB01214DF2106001F07BFB132188
:103070004DF2116001F076FB01214DF2126001F07A
:1030800071FB54214DF2136001F06CFB01214DF2F4
:10309000146001F067FB82214DF2156001F062FBC4
:1030A00001214DF2166001F05DFBCA214DF217605F
:1030B00001F058FB02214DF2186001F053FB002192
:1030C0004DF2196001F04EFB02214DF21A6001F041
:1030D00049FB01214DF21B6001F044FB02214DF23E
:1030E0001C6001F03FFB34214DF21D6001F03AFB02
:1030F00002214DF21E6001F035FB67214DF21F6089
:1031000001F030FB02214DF2206001F02BFB842105
:103110004DF2216001F026FB02214DF2226001F008
:1031200021FBA4214DF2236001F01CFB02214DF292
:10313000246001F017FBB7214DF2256001F012FB6E
:1031400002214DF2266001F00DFBCF214DF22760E8
:1031500001F008FB02214DF2286001F003FBDE21A3
:103160004DF2296001F0FEFA02214DF22A6001F0D1
:10317000F9FAF2214DF22B6001F0F4FA02214DF23E
:103180002C6001F0EFFAFE214DF22D6001F0EAFA19
:1031900003214DF22E6001F0E5FA10214DF22F606F
:1031A00001F0E0FA03214DF2306001F0DBFA332147
:1031B0004DF2316001F0D6FA03214DF2326001F098
:1031C000D1FA6D214DF2336001F0CCFA55214FF464
:1031D000704001F0C7FAAA214FF2010001F0C2FAD3
:1031E00052214FF2020001F0BDFA08214FF2030014
:1031F00001F0B8FA00214FF2040001F0B3FACC213B
:103200004FF4314001F0AEFA00214BF2011001F011
:10321000A9FA05214FF4364001F0A4FA70214FF4C9
:10322000374001F09FFA70214BF2017001F09AFAD9
:1032300001214FF4384001F095FA03214BF60100CB
:1032400001F090FA03214BF6020001F08BFA032102
:103250004BF6030001F086FA02214FF43C4001F0E6
:1032600081FA00214BF6014001F07CFA00214BF677
:10327000024001F077FAD0214FF4494001F072FA90
:1032800002214CF6011001F06DFA50214CF60210AB
:1032900001F068FA50214CF6031001F063FA502156
:1032A0004CF6041001F05EFA00214FF4545001F086
:1032B00059FA55214FF4685001F054FA4FF48850F0
:1032C00001F044FA782005F0B1FF4FF4245001F0EA
:1032D0003DFA01F09DB8FE48808849F225318842C8
:1032E0007ED147F6F001E52001F03CFA4FF4807101
:1032F000012001F037FA4FF4E061022001F032FAC8
:1033000041F23001032001F02DFA0021042001F0E8
:1033100029FA40F20221082001F024FA00210920B4
:1033200001F020FA00210A2001F01CFA00210C20F3
:1033300001F018FA00210D2001F014FA00210F20ED
:1033400001F010FA0021102001F00CFA07211120E1
:1033500001F008FA0021122001F004FA00211320E4
:1033600001F000FA0021072001F0FCF941F2906120
:10337000102001F0F7F940F22721112001F0F2F9B5
:103380009D21122001F0EEF94FF4C851132001F0F5
:10339000E9F92521292001F0E5F90D212B2001F083
:1033A000E1F90721302001F0DDF940F2033131204D
:1033B00001F0D8F90321322001F0D4F940F20621BE
:1033C000352001F0CFF90821362001F0CBF940F289
:1033D0000641372001F0C6F94FF44171382000E072
:1033E00057E001F0BFF90721392001F0BBF940F2A5
:1033F00002613C2001F0B6F908213D2001F0B2F94C
:103400000021502001F0AEF9EF21512001F0AAF97E
:103410000021522001F0A6F940F23F11532001F0A3
:10342000A1F94FF42741602001F09CF901216120AE
:1034300001F098F900216A2001F094F90021802020
:1034400001F090F90021812001F08CF90021822007
:1034500001F088F90021832001F084F90021842003
:1034600001F080F90021852001F07CF910219020E5
:1034700001F078F94FF4C061922001F073F940F245
:103480003311072001F06EF92221002001F06AF9C2
:103490001FE78F48808849F2283188427ED141F267
:1034A0008F01EC2001F05EF941F23421EF2001F0B0
:1034B00059F94FF48071012001F054F94FF4E061A3
:1034C000022001F04FF941F23001032001F04AF9E6
:1034D0000021042001F046F940F20221082001F009
:1034E00041F90021092001F03DF900210A2001F0F5
:1034F00039F901210C2001F035F900210D2001F0EE
:1035000031F900210F2001F02DF90021102001F0E8
:1035100029F90721112001F025F90021122001F0DD
:1035200021F90021132001F01DF90121072001F0EC
:1035300019F9322005F06DFE41F29041102001F0A2
:1035400011F940F22721112001F00CF9322005F089
:1035500060FE8A21122001F005F9322005F059FEA3
:103560004FF4D051132001F0FDF80621292001F07D
:10357000F9F80D212B2001F0F5F8322005F049FE75
:103580000021202001F0EEF80021212001F0EAF8CE
:10359000322005F03EFE0021302000E074E001F012
:1035A000E1F840F20461312001F0DCF840F205312D
:1035B000322001F0D7F80021352001F0D3F840F691
:1035C0000941362001F0CEF84FF40171372001F0A7
:1035D000C9F840F20131382001F0C4F840F2077117
:1035E000392001F0BFF800213C2001F0BBF840F683
:1035F0000A213D2001F0B6F8322005F00AFE002134
:10360000502001F0AFF8EF21512001F0ABF800217C
:10361000522001F0A7F840F23F11532001F0A2F828
:103620004FF42741602001F09DF80121612001F055
:1036300099F800216A2001F095F80021802001F01E
:1036400091F80021812001F08DF80021822001F005
:1036500089F80021832001F085F80021842001F001
:1036600081F80021852001F07DF81021902001F0E3
:1036700079F84FF4C061922001F074F840F23311F0
:10368000072001F06FF824E61148808849F22031C4
:1036900088427DD10021084601F064F84FF4807122
:1036A000012001F05FF84FF4E061022001F05AF8C8
:1036B00041F23001032001F055F80021042001F00F
:1036C00051F840F20221082001F04CF8002101E0FD
:1036D00080720020092001F045F800210A2001F045
:1036E00041F801210C2001F03DF800210D2001F0EE
:1036F00039F800210F2001F035F8322005F089FD5E
:1037000040F20111072001F02DF8322005F081FD73
:103710004FF48651102001F025F80721112001F007
:1037200021F84FF48871122001F01CF84FF4306139
:10373000132001F017F80021292001F013F844F2BA
:1037400010012B2001F00EF80021502001F00AF8A2
:10375000EF21512001F006F80021522001F002F87B
:1037600040F23F11532000F0FDFF4FF41C51602048
:1037700000F0F8FF0121612000F0F4FF00216A2031
:1037800000F0F0FF0021802000F0ECFF002100E0BD
:1037900031E0812000F0E6FF0021822000F0E2FF0E
:1037A0000021832000F0DEFF0021842000F0DAFFFA
:1037B0000021852000F0D6FF1021902000F0D2FFDC
:1037C0000021922000F0CEFF0121932000F0CAFFDB
:1037D0004FF48871952000F0C5FF0021972000F07C
:1037E000C1FF0021982000F0BDFF40F273110720B7
:1037F00000F0B8FF6DE5FE48808849F2313188421B
:103800007DD141F21401E72000F0ACFF4FF480714C
:10381000012000F0A7FF4FF40071022000F0A2FF8A
:1038200041F23801032000F09DFF40F20221082000
:1038300000F098FF0021092000F094FF00210A20E9
:1038400000F090FF00210C2000F08CFF00210D20E3
:1038500000F088FF00210F2000F084FF00211020DD
:1038600000F080FF0721112000F07CFF00211220D2
:1038700000F078FF0021132000F074FFC82005F04D
:10388000C8FC41F29061102000F06CFF40F227214B
:10389000112000F067FF322005F0BBFC0C21122044
:1038A00000F060FF322005F0B4FC4FF400611320FB
:1038B00000F058FF1121292000F054FF0B212B208C
:1038C00000F050FF322005F0A4FC0021202000F081
:1038D00049FF40F23F11212000F044FF0021302039
:1038E00000F040FF4FF48371312000F03BFF0021D6
:1038F000322000F037FF4FF40171352000E064E022
:1039000000F030FF41F20A61362000F02BFF40F258
:103910000771372000F026FF4FF48371382000F044
:1039200021FF40F20771392000F01CFF40F20241F4
:103930003C2000F017FF40F60F413D2000F012FF41
:103940000021502000F00EFFEF21512000F00AFF6F
:103950000021522000F006FF40F23F11532000F0FA
:1039600001FF4FF41C51602000F0FCFE012161209A
:1039700000F0F8FE00216A2000F0F4FE0021802013
:1039800000F0F0FE0021812000F0ECFE00218220FA
:1039900000F0E8FE0021832000F0E4FE00218420F6
:1039A00000F0E0FE0021852000F0DCFE10219020D8
:1039B00000F0D8FE4FF4C061922000F0D3FE40F238
:1039C0003311072000F0CEFE83E48948808845F259
:1039D000084188427ED14FF48071012000F0C2FE80
:1039E0004FF4E061022000F0BDFE41F230010320FF
:1039F00000F0B8FE0021042000F0B4FE40F20721E0
:103A0000082000F0AFFE0021092000F0ABFE0021ED
:103A10000A2000F0A7FE00210C2000F0A3FE0021E8
:103A20000D2000F09FFE00210F2000F09BFE1420CF
:103A300005F0EFFB41F2B061102000F093FE012190
:103A4000112000F08FFE0121172000F08BFE4FF4B3
:103A50009C71122000F086FE4FF40061132000F0EC
:103A600081FE0921292000F07DFE09212A2000F095
:103A700079FE0021A42000F075FE0021502000F006
:103A800071FEEF21512000F06DFE0021522000F068
:103A900069FE40F23F11532000F064FE4FF41C51C8
:103AA000602000F05FFE0121612000F05BFE00213C
:103AB0006A2000F057FE0021802000F053FE002114
:103AC000812000F04FFE0021822000F04BFE0021FB
:103AD000832000E023E000F045FE0021842000F078
:103AE00041FE0021852000F03DFE1321902000F0D2
:103AF00039FE0021922000F035FE0321932000F0D2
:103B000031FE4FF48871952000F02CFE40F27311C5
:103B1000072000F027FE322005F07BFBB8E4344894
:103B2000808841F2055188427ED10021072000F0B3
:103B300019FE322005F06DFB4FF48E71122000F05B
:103B400011FE0121A42000F00DFE0F21082000F03D
:103B500009FE08210A2000F005FE08210D2000F0D2
:103B600001FE40F20771302000F0FCFD07213120FA
:103B700000F0F8FD40F20361322000F0F3FD4FF455
:103B8000E061332000F0EEFD40F20221342000F02D
:103B9000E9FD0221352000F0E5FD41F60F713620E8
:103BA00000F0E0FD40F20771372000F0DBFD00215E
:103BB000382000F0D7FD0021392000F0D3FD40F27D
:103BC00007713A2000F0CEFD00213B2000F0CAFD35
:103BD00007213C2000F0C6FD00213D2000F0C2FD81
:103BE000322005F016FB0121072000F0BBFD01E0AB
:103BF000807200200121172000F0B4FD322005F072
:103C000008FB4FF4BD51102000F0ACFD40F217212D
:103C1000112000F0A7FD4FF48F71122000F0A2FDDB
:103C20004FF47061132000E097E000F09BFD00214D
:103C30002A2000F097FD0A21292000F093FD4FF47F
:103C40009F71122000F08EFD0021502000F08AFDAF
:103C5000EF21512000F086FD0021522000F082FD6E
:103C600040F23F11532000F07DFD4FF41C516020C5
:103C700000F078FD0121612000F074FD00216A2030
:103C800000F070FD0021802000F06CFD00218120FB
:103C900000F068FD0021822000F064FD00218320F7
:103CA00000F060FD0021842000F05CFD00218520F3
:103CB00000F058FD1321902000F054FD4FF44071A6
:103CC000922000F04FFD0521932000F04BFD0021D4
:103CD000952000F047FD0021972000F043FD0021D2
:103CE000982000F03FFD4FF48071012000F03AFD74
:103CF0004FF4E061022000F035FD41F2380103206D
:103D000000F030FD0021042000F02CFD00210C20EB
:103D100000F028FD00210F2000F024FD00212020CC
:103D200000F020FD0021212000F01CFD21210720B2
:103D300000F018FD142005F06CFA6121072000F056
:103D400011FD142005F065FA40F27311072000F010
:103D500009FD142005F05DFA5AE3FE4880884BF215
:103D6000055188427ED10021084600F0FBFC00216D
:103D7000084600F0F7FC0021084600F0F3FC0021A3
:103D8000084600F0EFFC0121A42000F0EBFC142019
:103D900005F03FFA4FF41C51602000F0E3FC40F2C4
:103DA0000221082000F0DEFC4FF40571302000F005
:103DB000D9FC43F21571312000F0D4FC40F20461CB
:103DC000322000F0CFFC40F61661332000F0CAFC30
:103DD00042F21121342000F0C5FC4FF4A8513520E7
:103DE00000F0C0FC48F20751362000F0BBFC41F265
:103DF0000741372000F0B6FC41F20341382000F0C3
:103E0000B1FC2021392000F0ADFC1A21902000F0F7
:103E1000A9FC0021102000F0A5FC0721112000F0D2
:103E2000A1FC0021122000F09DFC0021132000F0D5
:103E300099FC142005F0EDF94FF4E661102000F034
:103E400091FC40F23711112000F08CFC142005F099
:103E5000E0F94FF4DC71122000F084FC142005F02E
:103E6000D8F900E083E04FF47061132000F07AFC91
:103E700080212A2000F076FC4821292000F072FCE5
:103E8000142005F0C6F94FF48071012000F06AFC9F
:103E90004FF4E061022000F065FC41F2380103209C
:103EA00000F060FC40F20221082000F05BFC0021E1
:103EB0000A2000F057FC00210C2000F053FC0021E8
:103EC0000D2000F04FFC30210E2000F04BFC0021B3
:103ED000502000F047FCEF21512000F043FC00216E
:103EE000522000F03FFC40F23F11532000F03AFC1A
:103EF0004FF41C51602000F035FC0121612000F0DE
:103F000031FC00216A2000F02DFC1121902000F0EE
:103F100029FC4FF4C061922000F024FC40F20241E1
:103F2000932000F01FFC0221942000F01BFC1420C1
:103F300005F06FF90121072000F014FC142005F0B2
:103F400068F96121072000F00DFC40F27311072091
:103F500000F008FC0021202000F004FC00212120BA
:103F600000F000FC2221002000F0FCFB50E2794828
:103F700080884CF2055188427ED10021084600F02D
:103F8000F1FB0021084600F0EDFB142005F041F99B
:103F90000021084600F0E6FB0021084600F0E2FBA5
:103FA0000021084600F0DEFB0021084600F0DAFBA5
:103FB0000121A42000F0D6FB142005F02AF94FF4CB
:103FC0001C51602000F0CEFB40F60601082000F0F6
:103FD000C9FB40F20371302000F0C4FB0121312005
:103FE00000F0C0FB0421322000F0BCFB4FF48171D3
:103FF000332000F0B7FB4FF44071342000F0B2FBE7
:1040000040F20311352000F0ADFB1F21362000F0F7
:10401000A9FB40F20371372000F0A4FB01213820F6
:1040200000F0A0FB0421392000F09CFB152190201A
:1040300000F098FB4FF48261102000F093FB40F2F7
:104040004721112000F08EFB4FF4DE71122000F0AA
:1040500089FB4FF46061132000F084FB782005F0A9
:10406000D8F84FF48071012000F07CFB4FF4007110
:10407000022000F077FB00E050E041F23001032025
:1040800000F070FB08210A2000F06CFB00210C20DE
:1040900000F068FB20210E2000F064FB00210F20BF
:1040A00000F060FB0021202000F05CFB00212120BB
:1040B00000F058FB3D212A2000F054FB142005F0AD
:1040C000A8F82D21292000F04DFB0021502000F000
:1040D00049FB4DF2EF01512000F044FB002152203A
:1040E00000F040FB40F23F11532000F03BFB002169
:1040F000612000F037FB00216A2000F033FB4FF411
:104100004071922000F02EFB0521932000F02AFB45
:104110004FF48071072000F025FB79E10D4880887D
:1041200044F2315188427CD10121002000F01AFB79
:104130000A2005F06EF841F22861102000F012FB11
:104140000E21122000F00EFB40F63921132000F062
:1041500009FB01E0807200200A2005F05AF8402196
:10416000112000F0FFFA5021152000F0FBFA0A2080
:1041700005F04FF81E21122000F0F4FA0A2005F095
:1041800048F84FF4B151102000F0ECFA42F6392112
:10419000132000F0E7FA0A2005F03BF84FF4807195
:1041A000012000F0DFFA4FF44071022000F0DAFA4B
:1041B00041F23801032000F0D5FA40F20221082034
:1041C00000F0D0FA08210A2000F0CCFA00213020BB
:1041D00000F0C8FA40F20241312000F0C3FA4FF477
:1041E0008371322000F0BEFA40F20351332000F018
:1041F000B9FA4FF48271342000F0B4FA40F2013180
:10420000352000F0AFFA40F20771362000F0AAFA2C
:1042100040F20531372000F0A5FA4FF40271382042
:1042200000E040E000F09EFA40F60B71392000F00B
:1042300099FA0221412000F095FA4FF41C516020B8
:1042400000F090FA0121612000F08CFA4FF4047123
:10425000902000F087FA4FF48571922000F082FAE6
:104260000421932000F07EFA4FF48071A02000F02A
:1042700079FA0121072000F075FA2121072000F0CA
:1042800071FA2321072000F06DFA3321072000F096
:1042900069FA40F23311072000F064FA0021A020EF
:1042A00000F060FAB4E05F48808844F235518842FB
:1042B000F8D13021152000F055FA10219A2000F095
:1042C00051FA2021112000F04DFA43F2284110202C
:1042D00000F048FA0221122000F044FA41F23801BD
:1042E000132000F03FFA282004F093FF1221084623
:1042F00000F038FA282004F08CFF43F2204110200F
:1043000000F030FA43F23801132000F02BFA462077
:1043100004F07FFF0021302000F024FA40F2024137
:10432000312000F01FFA40F20731322000F01AFA73
:104330004FF44171332000F015FA0421342000F0CD
:1043400011FA40F20141352000F00CFA40F20771F9
:10435000362000F007FA40F20531372000F002FA6B
:104360004FF4C261382000F0FDF94FF4C2613920EA
:1043700000F0F8F94FF48071012000F0F3F94FF4E8
:104380004071022000F0EEF941F23001032000F00C
:10439000E9F940F60801082000F0E4F908210A20B4
:1043A00000F0E0F94FF41C51602000F0DBF901212E
:1043B000612000F0D7F94FF49F71902000F0D2F9FE
:1043C0004FF48071922000F0CDF94FF4807193206A
:1043D00000F0C8F94FF44051A02000F0C3F91021BB
:1043E000A32000F0BFF90121072000F0BBF9212133
:1043F000072000F0B7F92321072000F0B3F933219B
:10440000072000F0AFF940F23311072000F0AAF9BD
:104410000020FCF7BDFB02210348FCF7B0FB21B0F4
:1044200000BD0000807200200004024008B503486F
:1044300000880090BDF8000008BD00000000086082
:1044400001B5BDF8000000F081F9052004F0EEFE92
:10445000FFF7ECFF08BD00002DE9F04305460024FE
:10446000A146B348807901281ED1B148808846F61C
:104470000401884218D0082D15D2DFE805F00406A3
:10448000080A0C0E101206250DE007250BE0042586
:1044900009E0052507E0012505E0002503E00325E7
:1044A00001E0022500BF00BFA148808849F24131E8
:1044B000884211D09E48808846F6040188420BD07D
:1044C0009B48808845F21031884205D09848808802
:1044D00045F21051884278D1082D1CD2DFE805F052
:1044E0000406090C0F12151800BF14E044F08004F4
:1044F00011E044F040040EE044F0C0040BE044F04E
:10450000200408E044F0600405E044F0A00402E068
:1045100044F0E00400BF00BF8548808845F2105198
:10452000884202D14FF4585901E04FF036098048D3
:10453000808845F21031884207D07D48808845F256
:104540001051884201D044F008047948808846F62A
:104550000401884201D144F002042146484600F09B
:1045600001F904F0200018B97148807901280FD1B1
:104570006F4800886E494988884218DA6C48B0F85C
:10458000008040886A4908800846A0F802800EE052
:104590006748008866494988884208DD6448B0F861
:1045A00000804088624908800846A0F80280604880
:1045B000807901280AD15E48808846F60401884245
:1045C00004D05B484688078803E07AE058480688AC
:1045D00047885748808845F2105188424AD154494B
:1045E000488900F0B3F8002000F0A4F85049498948
:1045F000491C88B200F0AAF8002000F09BF84C4952
:104600004989891C88B200F0A1F8711EC1F30F20FE
:1046100000F090F846494989C91C88B200F096F824
:10462000711EC8B200F086F84149888900F08EF802
:10463000002000F07FF83E498989491C88B200F0CB
:1046400085F8002000F076F839498989891C88B2FC
:1046500000F07CF8791EC1F30F2000F06BF83449AC
:104660008989C91C88B200F071F8791EC8B200F0BF
:1046700061F85AE02E49488900F068F8002000F0FF
:1046800059F8002000F056F8711EC1F30F2000F019
:1046900051F8711EC8B200F04DF82549888900F024
:1046A00055F8002000F046F8002000F043F8791E8D
:1046B000C1F30F2000F03EF8791EC8B200F03AF8BE
:1046C00033E0082D1CD2DFE805F004070A0D0F12B5
:1046D000151844F0300413E044F0100410E044F0E6
:1046E00020040DE000BF0BE044F0380408E044F083
:1046F000280405E044F0180402E044F0080400BF78
:1047000000BF0B48808848F68911884205D14FF0D8
:10471000110946F24000044303E04FF0030944F45A
:1047200080542146484600F01DF8BDE8F0830000A3
:104730008072002001B5BDF800000090BDF80000B7
:104740000149088008BD00000000086001B5BDF8FF
:1047500000000090BDF800000149088008BD00007D
:10476000FEFF076003B5BDF8000003490880BDF8EF
:104770000400891C08800CBDFEFF07601CB50446C0
:104780000121206800F062F80020009001900120D3
:104790008DF804002089009002208DF8050000208B
:1047A0008DF8060001208DF8070069466068FCF767
:1047B0006FF9204609F0D5FC1CBD00BFFEE770472D
:1047C00070B5002100230F22C4781CB3174C246855
:1047D00004F4E064C4F5E064C4F30721C1F1040407
:1047E000E3B20A4144789C40E1B28478144021430A
:1047F0000C07210E0E4C05786155047804F01F0556
:104800000124AC4005786D11AD0005F1E025C5F837
:10481000004109E0047804F01F050124AC40054D77
:104820000678761145F8264070BD00000CED00E0DA
:1048300000E400E080E100E002490143024A116027
:10484000704700000000FA050CED00E029B1064AAF
:1048500012680243044B1A6004E0034A1268824360
:10486000014B1A60704700003038024029B1064AF7
:1048700012680243044B1A6004E0034A1268824340
:10488000014B1A60704700003838024029B1064ACF
:1048900012680243044B1A6004E0034A1268824320
:1048A000014B1A60704700004038024029B1064AA7
:1048B00012680243044B1A6004E0034A1268824300
:1048C000014B1A607047000044380240F0B50021E7
:1048D00000220024022500260223324F3F6807F001
:1048E0000C0121B1042905D0082937D105E02E4F4C
:1048F000076036E02D4F076033E02A4F3F1F3F68C7
:10490000C7F38056274F3F1F3F6807F03F036EB144
:10491000264FB7FBF3F7DFF88CC0ACF1040CDCF8E2
:1049200000C0CCF3881C07FB0CF40CE01E4FB7FB57
:10493000F3F7DFF870C0ACF1040CDCF800C0CCF386
:10494000881C07FB0CF4174F3F1F3F68C7F3014754
:104950007F1C7D00B4FBF5F7076002E0124F076093
:1049600000BF00BF0F4F3F6807F0F0010909104F6B
:104970007A5C0768D74047600A4F3F6807F4E05108
:10498000890A0B4F7A5C4768D7408760054F3F68BC
:1049900007F46041490B064F7A5C4768D740C7600F
:1049A000F0BD0000083802400024F40000127A0034
:1049B000400000200CB500200190009034480068B1
:1049C00040F480303249086000BF3148006800F48C
:1049D000003000900198401C0190009818B901988F
:1049E000B0F5A04FF1D12A48006800F4003010B1B2
:1049F0000120009001E0002000900098012846D19D
:104A000023484030006840F0805021494031086020
:104A10002048006840F440401E4908601C480830A7
:104A200000681B49083108600846006840F40040EF
:104A300008600846006840F4A05008601648091F46
:104A40000860081F006840F08070091F086000BF00
:104A50000F48006800F000700028F9D040F205709F
:104A60000E4908600A480830006820F00300084931
:104A7000083108600846006840F00200086000BF86
:104A800003480830006800F00C000828F8D10CBD7D
:104A9000003802400070004008544007003C0240CB
:104AA00010B500BF502080F31188BFF34F8FBFF3C4
:104AB0006F8F00BF24F07EFD18B14FF08050044985
:104AC000086000BF002080F3118800BF10BD000007
:104AD00004ED00E010B51548006840F4700013497B
:104AE00008601348006840F0010011490860002088
:104AF0000F49083108600E4800680E4908400C490B
:104B000008600D48091D0860081F006820F4802017
:104B1000091F0860002006490C310860FFF74AFFB2
:104B20004FF0006001498039086010BD88ED00E059
:104B300000380240FFFFF6FE1030002421B1028849
:104B400042F00102028004E002884FF6FE731A4030
:104B5000028070470146486A7047C16270474162EF
:104B60007047000000220288184B98420ED0184B64
:104B700098420BD0B0F1804F08D0164B984205D028
:104B8000154B984202D0154B984204D14FF68F73C3
:104B90001A404B881A43124B984207D0114B984247
:104BA00004D04FF6FF431A400B891A4302804B682A
:104BB000C3620B880385054B984202D0044B984290
:104BC00001D18B7A03860123838270470000014064
:104BD000000401400004004000080040000C0040B8
:104BE00000100040001400403EB505460C4601216F
:104BF0000220FFF74BFE681E01900020ADF8080070
:104C00001020ADF80200601E80B2ADF80000002058
:104C10008DF80A0069460248FFF7A4FF3EBD000078
:104C20000004004010B540F22551084800F034F867
:104C300058B1064800F0EAF8C4B20548006818B157
:104C4000204603490968884700BF10BD0010014095
:104C50002800002021B1828942F40052828104E0C0
:104C600082894DF6FF731A40828170471AB1838A98
:104C70000B43838202E0838A8B4383827047024620
:104C80000020B1F5007F00D100BF13880B400BB1AD
:104C9000012000E00020704770B502460024002388
:104CA0000025002040F66A16B14200D100BFC1F3D2
:104CB000421501F01F03012606FA03F3012D02D16C
:104CC0009689334006E0022D02D1168A334001E076
:104CD000968A33400C12012606FA04F416883440F2
:104CE00013B10CB1012000E0002070BDF0B5034607
:104CF000002400260025002040F66A17B94200D1A2
:104D000000BF1846C1F3421401F01F06012707FA3D
:104D100006F5012C01D10C3004E0022C01D1103039
:104D200000E014301AB107682F43076002E00768FB
:104D3000AF430760F0BD00002DE9FF4705460E4672
:104D40000024A14600BFA046B08900B100BF2C8A54
:104D500024F44054F08804432C82AC8941F20C6066
:104D60008443B08831890843718908430443AC8186
:104D7000AC8A24F44074B0890443AC826846FFF7DF
:104D8000A5FD2048854202D01F48854202D1DDF8AA
:104D90000C9001E0DDF80890A88900F4004040B1D3
:104DA00009EBC90000EB091031684900B0FBF1F7CD
:104DB00007E009EBC90000EB091031688900B0FB7E
:104DC000F1F76420B7FBF0F004012009642101FB36
:104DD0001078A88900F4004040B1322000EBC800F0
:104DE000B0FBF1F000F00700044308E0322000EBD4
:104DF00008106421B0FBF1F000F00F0004432C8197
:104E0000BDE8FF870010014000140140014688887A
:104E1000C0F308007047C1F308028280704700BFEA
:104E2000FEE700000FB4054B10B503A9044A029831
:104E300001F068FD10BC5DF814FB0000B9C2000869
:104E40005C0100200FB47CB50C0009AD01D0611EDF
:104E500000E00021CDE90001064B6A46294608988A
:104E600001F050FD002C02D0009A002111707CBC92
:104E70005DF814FB0B7000080FB4084B10B504A9C3
:104E800002AA039801F03EFD044602A9002002F0A8
:104E9000C7F8204610BC5DF814FB00002170000824
:104EA0007CB50C001D461646014601D0601E00E090
:104EB0000020CDE90010064B6A462946304601F035
:104EC00021FD002C02D0009A002111707CBD000051
:104ED0000B70000802E008C8121F08C1002AFAD1AE
:104EE00070477047002001E001C1121F002AFBD16A
:104EF00070472DE9F04180460F4614461D4625B9FE
:104F0000214640460EF07EF9054605FB07F6142CB7
:104F100003D1680800FB076617E0072C15DB0A2C95
:104F200013DC072C01D102200DE0082C01D1042054
:104F300009E0092C01D1102005E00A2C02D14FF420
:104F4000807000E0002006EB80063046BDE8F0816E
:104F50002DE9FF5F82B00021DDE90430020DDDF8AC
:104F600040B0034318D044F61050A2F2FF3242433F
:104F70001514119801281FD0A5EB0B00401C5FEA07
:104F8000000A4FF000064E4FDFF83891B046504609
:104F900015D5CAF1000413E0119801244AA3012891
:104FA00001D16FEA0B010298119AC0E90031C0E902
:104FB000024206B0BDE8F09FCBF10000DFE70446F7
:104FC0000021404A491842EB0450CDE9001012E09C
:104FD000E00707D032463B4640464946FBF7EAFA2F
:104FE0008046894632463B4610461946FBF7E2FAB0
:104FF00006460F466410002CEAD1DDE90401DDE924
:105000000023BAF1000F06DAFBF7D4FA42464B460A
:10501000FBF7D0FA05E0FBF73FFB42464B46FBF7B8
:105020003BFB04460E460022284BFBF7BDFB03D892
:105030004FF0FF30014607E00022254B2046314665
:10504000FBF711FAFBF797FB102409E0002C0ADBB1
:105050000A220023FBF716F9039B30321A55641E0F
:1050600050EA0102F2D1641C039AC4F11103144402
:10507000119A012A03D0012208430DD10AE0084306
:1050800004D000204FF0110B119072E7A3EB0B0539
:105090006D1E0DE05B4504DD4FF0000205F10105DA
:1050A00004E003DA4FF00002A5F10105002AECD07C
:1050B00002981199C0E90231C0E9004579E7000082
:1050C000000014400000F03F300000000000F043FA
:1050D0000000E03F10B558210C4800F03BFE0022D4
:1050E00021210B481CF02AF80849AC39C1F8A80066
:1050F00002F01CF900200549AC3981F8A400002118
:105100000248AC3880F8A51010BD0000E0F4002083
:105110005D7300082DE9F04F89B007460C4615462F
:105120002946204600F026F920B94FF0FF3009B09B
:10513000BDE8F08F00222946204600F0C7F808B1EC
:105140000020F4E7002620460AF098FB401E049059
:1051500020460AF014FB401E039068686168A0EBCB
:10516000010ABAF1000F12DD206805906068069010
:10517000A06807906068504408903046711C4EB299
:1051800007EB001005A991E80E10A0E80E10E868E2
:105190006168411A0398A0EB010BBBF1000F16DD0B
:1051A000E868E168884212DA20680590E8680690AD
:1051B000A0680790E868584408903046711C4EB2C9
:1051C00007EB001005A991E80E10A0E80E10686822
:1051D0006168884201DD686800E060688046E868D0
:1051E000E168884201DAE86800E0E068029002982D
:1051F000A0EB080928682168401A0190019800284E
:1052000017DDB9F1000F14DD20680590CDF8188086
:10521000216801980844079008EB0900089030467F
:10522000711C4EB207EB001005A991E80E10A0E822
:105230000E10A8682168411A0498401A009000983E
:10524000002814DDA8680590CDF81880A96800989A
:105250000844079008EB090008903046711C4EB2D4
:1052600007EB001005A991E80E10A0E80E103046DB
:105270005DE730B503460C681568AC4201DD0C688B
:1052800000E014681C604C685568AC4201DD4C6855
:1052900000E054685C608C689568AC4201DA8C6808
:1052A00000E094689C60CC68D568AC4201DACC68B8
:1052B00000E0D468DC6001209D681C68AC4203DC1F
:1052C000DD685C68AC4200DD002030BD2DE9FC41AA
:1052D00004460D46164600272068296888420CDBE4
:1052E00060686968884208DBA068A968884204DCB5
:1052F000E068E968884200DC012717B90020BDE8B2
:10530000FC810EB90120FAE76846D4E9001219F0D1
:10531000D5FF32466946284600F090F808B90020CB
:10532000EDE76846D4E9012119F0C8FF3246694625
:10533000284600F083F808B90020E0E76846E268F4
:10534000216819F0BBFF32466946284600F076F81E
:1053500008B90020D3E76846D4E9021219F0AEFF7D
:1053600032466946284600F069F808B90020C6E7C9
:105370000120C4E7024610688B6898420DDC9068F3
:105380000B68984209DB5068CB68984205DCD0680E
:105390004B68984201DB012070470020FCE77CB598
:1053A00004460D461646A068296888420BDBE06873
:1053B0006968884207DB2068A968884203DC606866
:1053C000E968884201DD01207CBD0EB90020FBE7C1
:1053D0006846D4E9001219F071FF32466946284642
:1053E00000F02CF808B10020EEE76846D4E901216E
:1053F00019F064FF32466946284600F01FF808B1EC
:105400000020E1E76846E268216819F057FF32465C
:105410006946284600F012F808B10020D4E7684633
:10542000D4E9021219F04AFF32466946284600F0D4
:1054300005F808B10020C7E70120C5E72DE9FF5FA7
:1054400005460E4614464FF0000A30682968884227
:105450000DDB3068A968884209DC70686968884299
:1054600005DB7068E968884201DC4FF0010ABAF197
:10547000000F03D1002004B0BDE8F09F002C01DC38
:105480000120F8E728460AF0F9F9834600EBDB70C3
:10549000471028460AF073F9834600EBDB704FEAA9
:1054A0006008474501DA384600E0404681464C45F1
:1054B00000DD4C4628680090286820440290686807
:1054C0000190686820440390002231466846FFF747
:1054D000B5FF50B1029820440290039820440390F5
:1054E0003146684619F010FFC5E7E868001B0190D7
:1054F000E8680390002231466846FFF79FFF50B1ED
:105500000298204402900198001B019031466846A1
:1055100019F0FAFEAFE7A868001B0090A868029097
:10552000002231466846FFF789FF50B10098001B02
:1055300000900198001B01903146684619F0E4FE86
:1055400099E768680190686820440390002231461A
:105550006846FFF773FF50B10098001B0090039856
:10556000204403903146684619F0CEFE83E70120BF
:1055700081E710B50B681468A34201DA0B6800E0FC
:10558000136803604B685468A34201DA4B6800E07B
:10559000536843608B689468A34201DD8B6800E028
:1055A00093688360CB68D468A34201DDCB6800E0D8
:1055B000D368C36010BD00002DE9F041064636B146
:1055C0005A49F068086130461BF0E8FE03E00CF031
:1055D000DBFD564908615548006918B900BF00BF96
:1055E000BDE8F08151480069456A1DB1286908B1DC
:1055F000E86810B900BF00BFF2E74C490022086913
:1056000034210CF091FE49490969D1F8B00219F032
:105610008FFC46480069D0F8B40228B143490969B3
:10562000D1F8B40219F084FC40490969D1F8BC02F0
:1056300019F07EFC3D490969D1F8C00219F078FCE7
:105640003A490969D1F8C40219F072FC3748006977
:10565000D0F8B00238B9002034490969C1F85C02B9
:1056600000BF00BF57E019F01DFF1DF0B9FD1DF090
:1056700089FB2E480069D0F85C0200B94BE02B4949
:105680000022086937210CF04FFE284908690CF008
:1056900031FE28B12548006990F83900012800D072
:1056A00024E02249086923F08DF9002417E01F48FF
:1056B000006900F50F70005D00B10FE01B4909693A
:1056C00001F5197000F0A8FB0746184800693C3046
:1056D00000EB04130FCB87E80F0000BF641C1348D6
:1056E0000069D0F85C02A042E1D800BF0F49096907
:1056F00001F13C004FF4007115F069F90B4909699B
:1057000001F50F70202115F062F9002007490969A1
:10571000C1F85C0200BF00F007F9044900220869E3
:1057200035210CF001FE00BF5AE7000034F40020E0
:1057300010B514210B4815F05CF90B480949C8391C
:10574000C1F8C80009490748C838C0F8CC10084952
:10575000C0F8D0100021C0F8D4100649C0F8D81005
:1057600010BD0000FCF40020D9840008CD8400089E
:10577000BF840008FF8902082DE9F0479AB08046EF
:105780000D4614461E4626B900BF00BF1AB0BDE83C
:10579000F08700BF2068169060681790A068189086
:1057A000E068199000BFE86A38B9286BB0F5807FCF
:1057B00003D1686BB0F5807F27D020460AF01CF833
:1057C0008146204609F0B7FF824605F14000A98EC8
:1057D00089B22A8E92B2CDE9002102905246494602
:1057E00016A8EB6A00F0F4F81698216808441690A1
:1057F0001798616808441790189821680844189011
:10580000199861680844199000BF16A912A8D8F821
:105810000820FFF72EFD00B9B8E7002203A8E969C8
:1058200013F011FA0746012F02D000BF00BFADE709
:1058300012A8002303AA2946CDE901060094404698
:1058400007F078FD03A813F0B9F900BF9EE7000048
:105850002DE9F04F9FB005460E4693469846B8F1A5
:10586000000F04D100BF00BF1FB0BDE8F08F0022C1
:1058700010A8F16913F0E7F98146B9F1010F02D0E0
:1058800000BF00BFF0E7B08C84B2706A070C9BE8E1
:105890000F00CDE90E23CDE90C0121460CA80AF03A
:1058A0002BF839460CA80AF022F8DDF830A01D4B81
:1058B0000FCBCDE90A23CDE9080129E017E00CA9B7
:1058C00004A8AA68FFF7D5FC50B104A80CA908AB3E
:1058D00010AACDE9010800913146284607F02AFDBB
:1058E0000C9820440C900E9820440E9000BF0C9809
:1058F000A96889688842E2DD0D9838440D900F98B8
:1059000038440F90CDF830A00AEB0400401E0E90F2
:105910000D98A968C9688842D0DD10A813F04EF927
:1059200000BFA1E7E89A020810B5002416E0C4EB16
:10593000C4010C4850F8210030B1C4EBC40209493D
:1059400051F8220012F0DAFBC4EBC402054901EB66
:1059500082001C2115F095F8601CC4B2042CE6DB13
:1059600010BD000034F500200146094AD06E0BE05E
:1059700042688A4202D002688A4204D1027E22F042
:105980000102521C027640690028F1D170470000E4
:1059900034F40020014A4169D166704734F4002094
:1059A0000249C96E41610149C866704734F400205C
:1059B00010B50421014800F0CDF910BDC8F5002054
:1059C00010B52021014800F0C5F910BD68F4002091
:1059D0002DE9F0478AB004460D4616469846DDE9A3
:1059E000129A149FB8F1000F0FD1B9F5807F0CD136
:1059F000BAF5807F09D1002020606060681EA06039
:105A0000701EE0600AB0BDE8F087202102A8FAF716
:105A1000B4FC0495079608950996012053464A461A
:105A20004146CDE9007002A819F05CFC0120534604
:105A30004A464146CDE9007004A819F053FC012004
:105A400053464A464146CDE9007006A819F04AFC83
:105A5000012053464A464146CDE9007008A819F096
:105A600041FC04990298884201DA029800E0049807
:105A7000089A0699914201DA069900E0089988424D
:105A800007DA04990298884201DA029808E004983B
:105A900006E008990698884201DA069800E008981E
:105AA000206004990298884201DD029800E0049881
:105AB000089A0699914201DD069900E0089988420A
:105AC00007DD04990298884201DD029808E00498F5
:105AD00006E008990698884201DD069800E00898DB
